{
  "_format": "hh-sol-artifact-1",
  "contractName": "DroneImageUploadAudit",
  "sourceName": "contracts/DroneImageUpload.sol",
  "abi": [
    {
      "anonymous": false,
      "inputs": [
        {
          "indexed": true,
          "internalType": "bytes32",
          "name": "txId",
          "type": "bytes32"
        },
        {
          "indexed": false,
          "internalType": "string",
          "name": "uploaderId",
          "type": "string"
        },
        {
          "indexed": false,
          "internalType": "string",
          "name": "fileHash",
          "type": "string"
        },
        {
          "indexed": false,
          "internalType": "uint256",
          "name": "timestamp",
          "type": "uint256"
        }
      ],
      "name": "ImageUploaded",
      "type": "event"
    },
    {
      "inputs": [
        {
          "internalType": "bytes32",
          "name": "txId",
          "type": "bytes32"
        }
      ],
      "name": "getUploadDetails",
      "outputs": [
        {
          "components": [
            {
              "internalType": "string",
              "name": "uploaderId",
              "type": "string"
            },
            {
              "internalType": "string",
              "name": "fileHash",
              "type": "string"
            },
            {
              "internalType": "uint256",
              "name": "timestamp",
              "type": "uint256"
            }
          ],
          "internalType": "struct DroneImageUploadAudit.ImageMetadata[]",
          "name": "",
          "type": "tuple[]"
        }
      ],
      "stateMutability": "view",
      "type": "function"
    },
    {
      "inputs": [
        {
          "internalType": "string",
          "name": "uploaderId",
          "type": "string"
        },
        {
          "internalType": "string[]",
          "name": "fileHashes",
          "type": "string[]"
        }
      ],
      "name": "uploadMultipleImages",
      "outputs": [],
      "stateMutability": "nonpayable",
      "type": "function"
    },
    {
      "inputs": [
        {
          "internalType": "string",
          "name": "uploaderId",
          "type": "string"
        },
        {
          "internalType": "string",
          "name": "fileHash",
          "type": "string"
        }
      ],
      "name": "uploadSingleImage",
      "outputs": [],
      "stateMutability": "nonpayable",
      "type": "function"
    }
  ],
  "bytecode": "0x6080604052348015600f57600080fd5b5061132a8061001f6000396000f3fe608060405234801561001057600080fd5b50600436106100415760003560e01c80638737917b1461004657806392a0e7e0146100765780639ef1922c14610092575b600080fd5b610060600480360381019061005b91906106c4565b6100ae565b60405161006d91906108b3565b60405180910390f35b610090600480360381019061008b9190610af0565b6102a5565b005b6100ac60048036038101906100a79190610b68565b6104e4565b005b606060008060008481526020019081526020016000208054905011610108576040517f08c379a00000000000000000000000000000000000000000000000000000000081526004016100ff90610c3d565b60405180910390fd5b600080838152602001908152602001600020805480602002602001604051908101604052809291908181526020016000905b8282101561029a578382906000526020600020906003020160405180606001604052908160008201805461016d90610c8c565b80601f016020809104026020016040519081016040528092919081815260200182805461019990610c8c565b80156101e65780601f106101bb576101008083540402835291602001916101e6565b820191906000526020600020905b8154815290600101906020018083116101c957829003601f168201915b505050505081526020016001820180546101ff90610c8c565b80601f016020809104026020016040519081016040528092919081815260200182805461022b90610c8c565b80156102785780601f1061024d57610100808354040283529160200191610278565b820191906000526020600020905b81548152906001019060200180831161025b57829003601f168201915b505050505081526020016002820154815250508152602001906001019061013a565b505050509050919050565b60008251116102e9576040517f08c379a00000000000000000000000000000000000000000000000000000000081526004016102e090610d09565b60405180910390fd5b600081511161032d576040517f08c379a000000000000000000000000000000000000000000000000000000000815260040161032490610d75565b60405180910390fd5b600042905060003382845160405160200161034a93929190610e30565b60405160208183030381529060405280519060200120905060005b83518110156104dd57600084828151811061038357610382610e6d565b5b602002602001015151116103cc576040517f08c379a00000000000000000000000000000000000000000000000000000000081526004016103c390610ee8565b60405180910390fd5b600060405180606001604052808781526020018684815181106103f2576103f1610e6d565b5b60200260200101518152602001858152509050600080848152602001908152602001600020819080600181540180825580915050600190039060005260206000209060030201600090919091909150600082015181600001908161045691906110b4565b50602082015181600101908161046c91906110b4565b50604082015181600201555050827f5edd899336c9a3f14b5a180605519e6cacef4f33fb2048c0e2beaf5a7740e123878785815181106104af576104ae610e6d565b5b6020026020010151876040516104c7939291906111ce565b60405180910390a2508080600101915050610365565b5050505050565b8181600082511161052a576040517f08c379a000000000000000000000000000000000000000000000000000000000815260040161052190610d09565b60405180910390fd5b600081511161056e576040517f08c379a00000000000000000000000000000000000000000000000000000000081526004016105659061125f565b60405180910390fd5b6000429050600033828660405160200161058a939291906112bb565b60405160208183030381529060405280519060200120905060006040518060600160405280888152602001878152602001848152509050600080838152602001908152602001600020819080600181540180825580915050600190039060005260206000209060030201600090919091909150600082015181600001908161061291906110b4565b50602082015181600101908161062891906110b4565b50604082015181600201555050817f5edd899336c9a3f14b5a180605519e6cacef4f33fb2048c0e2beaf5a7740e123888886604051610669939291906111ce565b60405180910390a250505050505050565b6000604051905090565b600080fd5b600080fd5b6000819050919050565b6106a18161068e565b81146106ac57600080fd5b50565b6000813590506106be81610698565b92915050565b6000602082840312156106da576106d9610684565b5b60006106e8848285016106af565b91505092915050565b600081519050919050565b600082825260208201905092915050565b6000819050602082019050919050565b600081519050919050565b600082825260208201905092915050565b60005b8381101561075757808201518184015260208101905061073c565b60008484015250505050565b6000601f19601f8301169050919050565b600061077f8261071d565b6107898185610728565b9350610799818560208601610739565b6107a281610763565b840191505092915050565b6000819050919050565b6107c0816107ad565b82525050565b600060608301600083015184820360008601526107e38282610774565b915050602083015184820360208601526107fd8282610774565b915050604083015161081260408601826107b7565b508091505092915050565b600061082983836107c6565b905092915050565b6000602082019050919050565b6000610849826106f1565b61085381856106fc565b9350836020820285016108658561070d565b8060005b858110156108a15784840389528151610882858261081d565b945061088d83610831565b925060208a01995050600181019050610869565b50829750879550505050505092915050565b600060208201905081810360008301526108cd818461083e565b905092915050565b600080fd5b600080fd5b7f4e487b7100000000000000000000000000000000000000000000000000000000600052604160045260246000fd5b61091782610763565b810181811067ffffffffffffffff82111715610936576109356108df565b5b80604052505050565b600061094961067a565b9050610955828261090e565b919050565b600067ffffffffffffffff821115610975576109746108df565b5b61097e82610763565b9050602081019050919050565b82818337600083830152505050565b60006109ad6109a88461095a565b61093f565b9050828152602081018484840111156109c9576109c86108da565b5b6109d484828561098b565b509392505050565b600082601f8301126109f1576109f06108d5565b5b8135610a0184826020860161099a565b91505092915050565b600067ffffffffffffffff821115610a2557610a246108df565b5b602082029050602081019050919050565b600080fd5b6000610a4e610a4984610a0a565b61093f565b90508083825260208201905060208402830185811115610a7157610a70610a36565b5b835b81811015610ab857803567ffffffffffffffff811115610a9657610a956108d5565b5b808601610aa389826109dc565b85526020850194505050602081019050610a73565b5050509392505050565b600082601f830112610ad757610ad66108d5565b5b8135610ae7848260208601610a3b565b91505092915050565b60008060408385031215610b0757610b06610684565b5b600083013567ffffffffffffffff811115610b2557610b24610689565b5b610b31858286016109dc565b925050602083013567ffffffffffffffff811115610b5257610b51610689565b5b610b5e85828601610ac2565b9150509250929050565b60008060408385031215610b7f57610b7e610684565b5b600083013567ffffffffffffffff811115610b9d57610b9c610689565b5b610ba9858286016109dc565b925050602083013567ffffffffffffffff811115610bca57610bc9610689565b5b610bd6858286016109dc565b9150509250929050565b600082825260208201905092915050565b7f4e6f206461746120666f756e6420666f72207468697320747849640000000000600082015250565b6000610c27601b83610be0565b9150610c3282610bf1565b602082019050919050565b60006020820190508181036000830152610c5681610c1a565b9050919050565b7f4e487b7100000000000000000000000000000000000000000000000000000000600052602260045260246000fd5b60006002820490506001821680610ca457607f821691505b602082108103610cb757610cb6610c5d565b5b50919050565b7f55706c6f616465722049442063616e6e6f7420626520656d7074790000000000600082015250565b6000610cf3601b83610be0565b9150610cfe82610cbd565b602082019050919050565b60006020820190508181036000830152610d2281610ce6565b9050919050565b7f4174206c65617374206f6e652068617368207265717569726564000000000000600082015250565b6000610d5f601a83610be0565b9150610d6a82610d29565b602082019050919050565b60006020820190508181036000830152610d8e81610d52565b9050919050565b600073ffffffffffffffffffffffffffffffffffffffff82169050919050565b6000610dc082610d95565b9050919050565b60008160601b9050919050565b6000610ddf82610dc7565b9050919050565b6000610df182610dd4565b9050919050565b610e09610e0482610db5565b610de6565b82525050565b6000819050919050565b610e2a610e25826107ad565b610e0f565b82525050565b6000610e3c8286610df8565b601482019150610e4c8285610e19565b602082019150610e5c8284610e19565b602082019150819050949350505050565b7f4e487b7100000000000000000000000000000000000000000000000000000000600052603260045260246000fd5b7f456d7074792066696c65206861736820666f756e640000000000000000000000600082015250565b6000610ed2601583610be0565b9150610edd82610e9c565b602082019050919050565b60006020820190508181036000830152610f0181610ec5565b9050919050565b60008190508160005260206000209050919050565b60006020601f8301049050919050565b600082821b905092915050565b600060088302610f6a7fffffffffffffffffffffffffffffffffffffffffffffffffffffffffffffffff82610f2d565b610f748683610f2d565b95508019841693508086168417925050509392505050565b6000819050919050565b6000610fb1610fac610fa7846107ad565b610f8c565b6107ad565b9050919050565b6000819050919050565b610fcb83610f96565b610fdf610fd782610fb8565b848454610f3a565b825550505050565b600090565b610ff4610fe7565b610fff818484610fc2565b505050565b5b8181101561102357611018600082610fec565b600181019050611005565b5050565b601f8211156110685761103981610f08565b61104284610f1d565b81016020851015611051578190505b61106561105d85610f1d565b830182611004565b50505b505050565b600082821c905092915050565b600061108b6000198460080261106d565b1980831691505092915050565b60006110a4838361107a565b9150826002028217905092915050565b6110bd8261071d565b67ffffffffffffffff8111156110d6576110d56108df565b5b6110e08254610c8c565b6110eb828285611027565b600060209050601f83116001811461111e576000841561110c578287015190505b6111168582611098565b86555061117e565b601f19841661112c86610f08565b60005b828110156111545784890151825560018201915060208501945060208101905061112f565b86831015611171578489015161116d601f89168261107a565b8355505b6001600288020188555050505b505050505050565b60006111918261071d565b61119b8185610be0565b93506111ab818560208601610739565b6111b481610763565b840191505092915050565b6111c8816107ad565b82525050565b600060608201905081810360008301526111e88186611186565b905081810360208301526111fc8185611186565b905061120b60408301846111bf565b949350505050565b7f46696c6520686173682063616e6e6f7420626520656d70747900000000000000600082015250565b6000611249601983610be0565b915061125482611213565b602082019050919050565b600060208201905081810360008301526112788161123c565b9050919050565b600081905092915050565b60006112958261071d565b61129f818561127f565b93506112af818560208601610739565b80840191505092915050565b60006112c78286610df8565b6014820191506112d78285610e19565b6020820191506112e7828461128a565b915081905094935050505056fea26469706673582212205a7fa0ecee16f81d5be1e9f6e764efb66051b8436a6f37e9e435679660e2b42e64736f6c634300081c0033",
  "linkReferences": {},
  "deployedLinkReferences": {}
}